{
  "_format": "hh-sol-artifact-1",
  "contractName": "DigitalId",
  "sourceName": "contracts/DigitalId.sol",
  "abi": [
    {
      "inputs": [
        {
          "internalType": "address",
          "name": "_owner",
          "type": "address"
        },
        {
          "internalType": "string",
          "name": "_fullName",
          "type": "string"
        },
        {
          "internalType": "uint256",
          "name": "_birthDate",
          "type": "uint256"
        },
        {
          "internalType": "string",
          "name": "_location",
          "type": "string"
        },
        {
          "internalType": "uint256",
          "name": "_poscode",
          "type": "uint256"
        },
        {
          "internalType": "string",
          "name": "_gender",
          "type": "string"
        },
        {
          "internalType": "uint256",
          "name": "_phoneNo",
          "type": "uint256"
        },
        {
          "internalType": "string",
          "name": "_image",
          "type": "string"
        }
      ],
      "name": "createId",
      "outputs": [
        {
          "internalType": "uint256",
          "name": "",
          "type": "uint256"
        }
      ],
      "stateMutability": "nonpayable",
      "type": "function"
    },
    {
      "inputs": [],
      "name": "getId",
      "outputs": [
        {
          "components": [
            {
              "internalType": "address",
              "name": "owner",
              "type": "address"
            },
            {
              "internalType": "string",
              "name": "fullName",
              "type": "string"
            },
            {
              "internalType": "uint256",
              "name": "birthDate",
              "type": "uint256"
            },
            {
              "internalType": "string",
              "name": "location",
              "type": "string"
            },
            {
              "internalType": "uint256",
              "name": "poscode",
              "type": "uint256"
            },
            {
              "internalType": "string",
              "name": "gender",
              "type": "string"
            },
            {
              "internalType": "uint256",
              "name": "phoneNo",
              "type": "uint256"
            },
            {
              "internalType": "string",
              "name": "image",
              "type": "string"
            }
          ],
          "internalType": "struct DigitalId.Id[]",
          "name": "",
          "type": "tuple[]"
        }
      ],
      "stateMutability": "view",
      "type": "function"
    },
    {
      "inputs": [
        {
          "internalType": "uint256",
          "name": "",
          "type": "uint256"
        }
      ],
      "name": "ids",
      "outputs": [
        {
          "internalType": "address",
          "name": "owner",
          "type": "address"
        },
        {
          "internalType": "string",
          "name": "fullName",
          "type": "string"
        },
        {
          "internalType": "uint256",
          "name": "birthDate",
          "type": "uint256"
        },
        {
          "internalType": "string",
          "name": "location",
          "type": "string"
        },
        {
          "internalType": "uint256",
          "name": "poscode",
          "type": "uint256"
        },
        {
          "internalType": "string",
          "name": "gender",
          "type": "string"
        },
        {
          "internalType": "uint256",
          "name": "phoneNo",
          "type": "uint256"
        },
        {
          "internalType": "string",
          "name": "image",
          "type": "string"
        }
      ],
      "stateMutability": "view",
      "type": "function"
    },
    {
      "inputs": [],
      "name": "numberOfIds",
      "outputs": [
        {
          "internalType": "uint256",
          "name": "",
          "type": "uint256"
        }
      ],
      "stateMutability": "view",
      "type": "function"
    },
    {
      "inputs": [
        {
          "internalType": "address",
          "name": "",
          "type": "address"
        }
      ],
      "name": "recorded",
      "outputs": [
        {
          "internalType": "bool",
          "name": "",
          "type": "bool"
        }
      ],
      "stateMutability": "view",
      "type": "function"
    }
  ],
  "bytecode": "0x6080604052600060025534801561001557600080fd5b50610ca7806100256000396000f3fe608060405234801561001057600080fd5b50600436106100575760003560e01c8063428690851461005c5780634fba6465146100785780635cabc2691461008b5780635d1ca631146100be578063fac333ac146100d3575b600080fd5b61006560025481565b6040519081526020015b60405180910390f35b610065610086366004610907565b6100fa565b6100ae6100993660046109e2565b60006020819052908152604090205460ff1681565b604051901515815260200161006f565b6100c66101c5565b60405161006f9190610a51565b6100e66100e1366004610b43565b610543565b60405161006f989796959493929190610b5c565b6002546000908152600160208181526040832080546001600160a01b0319166001600160a01b038d161781558a51909261013b9290840191908c01906107af565b5060028101889055865161015890600383019060208a01906107af565b5060048101869055845161017590600583019060208801906107af565b5060068101849055825161019290600783019060208601906107af565b50600280549060006101a383610bf4565b919050555060016002546101b79190610c0f565b9a9950505050505050505050565b6060600060025467ffffffffffffffff8111156101e4576101e4610864565b60405190808252806020026020018201604052801561026657816020015b61025360405180610100016040528060006001600160a01b03168152602001606081526020016000815260200160608152602001600081526020016060815260200160008152602001606081525090565b8152602001906001900390816102025790505b50905060005b60025481101561053d576000818152600160208181526040928390208351610100810190945280546001600160a01b0316845291820180549293928492840191906102b690610c26565b80601f01602080910402602001604051908101604052809291908181526020018280546102e290610c26565b801561032f5780601f106103045761010080835404028352916020019161032f565b820191906000526020600020905b81548152906001019060200180831161031257829003601f168201915b505050505081526020016002820154815260200160038201805461035290610c26565b80601f016020809104026020016040519081016040528092919081815260200182805461037e90610c26565b80156103cb5780601f106103a0576101008083540402835291602001916103cb565b820191906000526020600020905b8154815290600101906020018083116103ae57829003601f168201915b50505050508152602001600482015481526020016005820180546103ee90610c26565b80601f016020809104026020016040519081016040528092919081815260200182805461041a90610c26565b80156104675780601f1061043c57610100808354040283529160200191610467565b820191906000526020600020905b81548152906001019060200180831161044a57829003601f168201915b505050505081526020016006820154815260200160078201805461048a90610c26565b80601f01602080910402602001604051908101604052809291908181526020018280546104b690610c26565b80156105035780601f106104d857610100808354040283529160200191610503565b820191906000526020600020905b8154815290600101906020018083116104e657829003601f168201915b50505050508152505083838151811061051e5761051e610c5b565b602002602001018190525050808061053590610bf4565b91505061026c565b50919050565b6001602081905260009182526040909120805491810180546001600160a01b039093169261057090610c26565b80601f016020809104026020016040519081016040528092919081815260200182805461059c90610c26565b80156105e95780601f106105be576101008083540402835291602001916105e9565b820191906000526020600020905b8154815290600101906020018083116105cc57829003601f168201915b50505050509080600201549080600301805461060490610c26565b80601f016020809104026020016040519081016040528092919081815260200182805461063090610c26565b801561067d5780601f106106525761010080835404028352916020019161067d565b820191906000526020600020905b81548152906001019060200180831161066057829003601f168201915b50505050509080600401549080600501805461069890610c26565b80601f01602080910402602001604051908101604052809291908181526020018280546106c490610c26565b80156107115780601f106106e657610100808354040283529160200191610711565b820191906000526020600020905b8154815290600101906020018083116106f457829003601f168201915b50505050509080600601549080600701805461072c90610c26565b80601f016020809104026020016040519081016040528092919081815260200182805461075890610c26565b80156107a55780601f1061077a576101008083540402835291602001916107a5565b820191906000526020600020905b81548152906001019060200180831161078857829003601f168201915b5050505050905088565b8280546107bb90610c26565b90600052602060002090601f0160209004810192826107dd5760008555610823565b82601f106107f657805160ff1916838001178555610823565b82800160010185558215610823579182015b82811115610823578251825591602001919060010190610808565b5061082f929150610833565b5090565b5b8082111561082f5760008155600101610834565b80356001600160a01b038116811461085f57600080fd5b919050565b634e487b7160e01b600052604160045260246000fd5b600082601f83011261088b57600080fd5b813567ffffffffffffffff808211156108a6576108a6610864565b604051601f8301601f19908116603f011681019082821181831017156108ce576108ce610864565b816040528381528660208588010111156108e757600080fd5b836020870160208301376000602085830101528094505050505092915050565b600080600080600080600080610100898b03121561092457600080fd5b61092d89610848565b9750602089013567ffffffffffffffff8082111561094a57600080fd5b6109568c838d0161087a565b985060408b0135975060608b013591508082111561097357600080fd5b61097f8c838d0161087a565b965060808b0135955060a08b013591508082111561099c57600080fd5b6109a88c838d0161087a565b945060c08b0135935060e08b01359150808211156109c557600080fd5b506109d28b828c0161087a565b9150509295985092959890939650565b6000602082840312156109f457600080fd5b6109fd82610848565b9392505050565b6000815180845260005b81811015610a2a57602081850181015186830182015201610a0e565b81811115610a3c576000602083870101525b50601f01601f19169290920160200192915050565b60006020808301818452808551808352604092508286019150828160051b87010184880160005b83811015610b3557888303603f19018552815180516001600160a01b0316845261010088820151818a870152610ab082870182610a04565b915050878201518886015260608083015186830382880152610ad28382610a04565b92505050608080830151818701525060a08083015186830382880152610af88382610a04565b9250505060c080830151818701525060e08083015192508582038187015250610b218183610a04565b968901969450505090860190600101610a78565b509098975050505050505050565b600060208284031215610b5557600080fd5b5035919050565b6001600160a01b038916815261010060208201819052600090610b818382018b610a04565b90508860408401528281036060840152610b9b8189610a04565b905086608084015282810360a0840152610bb58187610a04565b90508460c084015282810360e0840152610bcf8185610a04565b9b9a5050505050505050505050565b634e487b7160e01b600052601160045260246000fd5b6000600019821415610c0857610c08610bde565b5060010190565b600082821015610c2157610c21610bde565b500390565b600181811c90821680610c3a57607f821691505b6020821081141561053d57634e487b7160e01b600052602260045260246000fd5b634e487b7160e01b600052603260045260246000fdfea26469706673582212200025cf88983f7d54b0b1c5660810720de5e2f7ffda5459025ed202946f744c4e64736f6c63430008090033",
  "linkReferences": {},
  "deployedLinkReferences": {}
}